{
  "address": "0xC1B50aB37B4043FB63550dC3aCDC266Ec9A9bAab",
  "abi": [
    {
      "inputs": [
        {
          "internalType": "address",
          "name": "_endpoint",
          "type": "address"
        },
        {
          "internalType": "address",
          "name": "_delegate",
          "type": "address"
        }
      ],
      "stateMutability": "nonpayable",
      "type": "constructor"
    },
    {
      "inputs": [
        {
          "internalType": "address",
          "name": "target",
          "type": "address"
        }
      ],
      "name": "AddressEmptyCode",
      "type": "error"
    },
    {
      "inputs": [
        {
          "internalType": "address",
          "name": "account",
          "type": "address"
        }
      ],
      "name": "AddressInsufficientBalance",
      "type": "error"
    },
    {
      "inputs": [],
      "name": "FailedInnerCall",
      "type": "error"
    },
    {
      "inputs": [],
      "name": "InvalidDelegate",
      "type": "error"
    },
    {
      "inputs": [],
      "name": "InvalidEndpointCall",
      "type": "error"
    },
    {
      "inputs": [
        {
          "internalType": "uint16",
          "name": "optionType",
          "type": "uint16"
        }
      ],
      "name": "InvalidOptionType",
      "type": "error"
    },
    {
      "inputs": [],
      "name": "LzTokenUnavailable",
      "type": "error"
    },
    {
      "inputs": [
        {
          "internalType": "uint32",
          "name": "eid",
          "type": "uint32"
        }
      ],
      "name": "NoPeer",
      "type": "error"
    },
    {
      "inputs": [
        {
          "internalType": "uint256",
          "name": "msgValue",
          "type": "uint256"
        }
      ],
      "name": "NotEnoughNative",
      "type": "error"
    },
    {
      "inputs": [
        {
          "internalType": "address",
          "name": "addr",
          "type": "address"
        }
      ],
      "name": "OnlyEndpoint",
      "type": "error"
    },
    {
      "inputs": [
        {
          "internalType": "uint32",
          "name": "eid",
          "type": "uint32"
        },
        {
          "internalType": "bytes32",
          "name": "sender",
          "type": "bytes32"
        }
      ],
      "name": "OnlyPeer",
      "type": "error"
    },
    {
      "inputs": [
        {
          "internalType": "address",
          "name": "owner",
          "type": "address"
        }
      ],
      "name": "OwnableInvalidOwner",
      "type": "error"
    },
    {
      "inputs": [
        {
          "internalType": "address",
          "name": "account",
          "type": "address"
        }
      ],
      "name": "OwnableUnauthorizedAccount",
      "type": "error"
    },
    {
      "inputs": [
        {
          "internalType": "uint8",
          "name": "bits",
          "type": "uint8"
        },
        {
          "internalType": "uint256",
          "name": "value",
          "type": "uint256"
        }
      ],
      "name": "SafeCastOverflowedUintDowncast",
      "type": "error"
    },
    {
      "inputs": [
        {
          "internalType": "address",
          "name": "token",
          "type": "address"
        }
      ],
      "name": "SafeERC20FailedOperation",
      "type": "error"
    },
    {
      "anonymous": false,
      "inputs": [
        {
          "indexed": true,
          "internalType": "address",
          "name": "previousOwner",
          "type": "address"
        },
        {
          "indexed": true,
          "internalType": "address",
          "name": "newOwner",
          "type": "address"
        }
      ],
      "name": "OwnershipTransferred",
      "type": "event"
    },
    {
      "anonymous": false,
      "inputs": [
        {
          "indexed": false,
          "internalType": "uint32",
          "name": "eid",
          "type": "uint32"
        },
        {
          "indexed": false,
          "internalType": "bytes32",
          "name": "peer",
          "type": "bytes32"
        }
      ],
      "name": "PeerSet",
      "type": "event"
    },
    {
      "anonymous": false,
      "inputs": [
        {
          "indexed": true,
          "internalType": "uint256",
          "name": "id",
          "type": "uint256"
        },
        {
          "indexed": true,
          "internalType": "address",
          "name": "author",
          "type": "address"
        },
        {
          "indexed": false,
          "internalType": "string",
          "name": "name",
          "type": "string"
        },
        {
          "indexed": false,
          "internalType": "string",
          "name": "description",
          "type": "string"
        },
        {
          "indexed": false,
          "internalType": "string",
          "name": "imageUrl",
          "type": "string"
        }
      ],
      "name": "StoryCreated",
      "type": "event"
    },
    {
      "anonymous": false,
      "inputs": [
        {
          "indexed": false,
          "internalType": "uint256",
          "name": "id",
          "type": "uint256"
        },
        {
          "indexed": false,
          "internalType": "address",
          "name": "author",
          "type": "address"
        },
        {
          "indexed": false,
          "internalType": "string",
          "name": "name",
          "type": "string"
        },
        {
          "indexed": false,
          "internalType": "string",
          "name": "description",
          "type": "string"
        },
        {
          "indexed": false,
          "internalType": "string",
          "name": "imageUrl",
          "type": "string"
        },
        {
          "indexed": false,
          "internalType": "uint16",
          "name": "srcChainId",
          "type": "uint16"
        }
      ],
      "name": "StoryReceived",
      "type": "event"
    },
    {
      "inputs": [
        {
          "components": [
            {
              "internalType": "uint32",
              "name": "srcEid",
              "type": "uint32"
            },
            {
              "internalType": "bytes32",
              "name": "sender",
              "type": "bytes32"
            },
            {
              "internalType": "uint64",
              "name": "nonce",
              "type": "uint64"
            }
          ],
          "internalType": "struct Origin",
          "name": "origin",
          "type": "tuple"
        }
      ],
      "name": "allowInitializePath",
      "outputs": [
        {
          "internalType": "bool",
          "name": "",
          "type": "bool"
        }
      ],
      "stateMutability": "view",
      "type": "function"
    },
    {
      "inputs": [
        {
          "internalType": "string",
          "name": "_name",
          "type": "string"
        },
        {
          "internalType": "string",
          "name": "_description",
          "type": "string"
        },
        {
          "internalType": "string",
          "name": "_imageUrl",
          "type": "string"
        },
        {
          "internalType": "uint32[]",
          "name": "_dstChainIds",
          "type": "uint32[]"
        }
      ],
      "name": "createStory",
      "outputs": [],
      "stateMutability": "payable",
      "type": "function"
    },
    {
      "inputs": [],
      "name": "endpoint",
      "outputs": [
        {
          "internalType": "contract ILayerZeroEndpointV2",
          "name": "",
          "type": "address"
        }
      ],
      "stateMutability": "view",
      "type": "function"
    },
    {
      "inputs": [],
      "name": "getAllStories",
      "outputs": [
        {
          "components": [
            {
              "internalType": "uint256",
              "name": "id",
              "type": "uint256"
            },
            {
              "internalType": "address",
              "name": "author",
              "type": "address"
            },
            {
              "internalType": "string",
              "name": "name",
              "type": "string"
            },
            {
              "internalType": "string",
              "name": "description",
              "type": "string"
            },
            {
              "internalType": "string",
              "name": "imageUrl",
              "type": "string"
            }
          ],
          "internalType": "struct MyOApp.Story[]",
          "name": "",
          "type": "tuple[]"
        }
      ],
      "stateMutability": "view",
      "type": "function"
    },
    {
      "inputs": [
        {
          "internalType": "uint256",
          "name": "_storyId",
          "type": "uint256"
        }
      ],
      "name": "getStory",
      "outputs": [
        {
          "components": [
            {
              "internalType": "uint256",
              "name": "id",
              "type": "uint256"
            },
            {
              "internalType": "address",
              "name": "author",
              "type": "address"
            },
            {
              "internalType": "string",
              "name": "name",
              "type": "string"
            },
            {
              "internalType": "string",
              "name": "description",
              "type": "string"
            },
            {
              "internalType": "string",
              "name": "imageUrl",
              "type": "string"
            }
          ],
          "internalType": "struct MyOApp.Story",
          "name": "",
          "type": "tuple"
        }
      ],
      "stateMutability": "view",
      "type": "function"
    },
    {
      "inputs": [],
      "name": "getTotalStories",
      "outputs": [
        {
          "internalType": "uint256",
          "name": "",
          "type": "uint256"
        }
      ],
      "stateMutability": "view",
      "type": "function"
    },
    {
      "inputs": [
        {
          "components": [
            {
              "internalType": "uint32",
              "name": "srcEid",
              "type": "uint32"
            },
            {
              "internalType": "bytes32",
              "name": "sender",
              "type": "bytes32"
            },
            {
              "internalType": "uint64",
              "name": "nonce",
              "type": "uint64"
            }
          ],
          "internalType": "struct Origin",
          "name": "",
          "type": "tuple"
        },
        {
          "internalType": "bytes",
          "name": "",
          "type": "bytes"
        },
        {
          "internalType": "address",
          "name": "_sender",
          "type": "address"
        }
      ],
      "name": "isComposeMsgSender",
      "outputs": [
        {
          "internalType": "bool",
          "name": "",
          "type": "bool"
        }
      ],
      "stateMutability": "view",
      "type": "function"
    },
    {
      "inputs": [
        {
          "components": [
            {
              "internalType": "uint32",
              "name": "srcEid",
              "type": "uint32"
            },
            {
              "internalType": "bytes32",
              "name": "sender",
              "type": "bytes32"
            },
            {
              "internalType": "uint64",
              "name": "nonce",
              "type": "uint64"
            }
          ],
          "internalType": "struct Origin",
          "name": "_origin",
          "type": "tuple"
        },
        {
          "internalType": "bytes32",
          "name": "_guid",
          "type": "bytes32"
        },
        {
          "internalType": "bytes",
          "name": "_message",
          "type": "bytes"
        },
        {
          "internalType": "address",
          "name": "_executor",
          "type": "address"
        },
        {
          "internalType": "bytes",
          "name": "_extraData",
          "type": "bytes"
        }
      ],
      "name": "lzReceive",
      "outputs": [],
      "stateMutability": "payable",
      "type": "function"
    },
    {
      "inputs": [
        {
          "internalType": "uint32",
          "name": "",
          "type": "uint32"
        },
        {
          "internalType": "bytes32",
          "name": "",
          "type": "bytes32"
        }
      ],
      "name": "nextNonce",
      "outputs": [
        {
          "internalType": "uint64",
          "name": "nonce",
          "type": "uint64"
        }
      ],
      "stateMutability": "view",
      "type": "function"
    },
    {
      "inputs": [],
      "name": "nextStoryId",
      "outputs": [
        {
          "internalType": "uint256",
          "name": "",
          "type": "uint256"
        }
      ],
      "stateMutability": "view",
      "type": "function"
    },
    {
      "inputs": [],
      "name": "oAppVersion",
      "outputs": [
        {
          "internalType": "uint64",
          "name": "senderVersion",
          "type": "uint64"
        },
        {
          "internalType": "uint64",
          "name": "receiverVersion",
          "type": "uint64"
        }
      ],
      "stateMutability": "pure",
      "type": "function"
    },
    {
      "inputs": [],
      "name": "owner",
      "outputs": [
        {
          "internalType": "address",
          "name": "",
          "type": "address"
        }
      ],
      "stateMutability": "view",
      "type": "function"
    },
    {
      "inputs": [
        {
          "internalType": "uint32",
          "name": "eid",
          "type": "uint32"
        }
      ],
      "name": "peers",
      "outputs": [
        {
          "internalType": "bytes32",
          "name": "peer",
          "type": "bytes32"
        }
      ],
      "stateMutability": "view",
      "type": "function"
    },
    {
      "inputs": [
        {
          "internalType": "string",
          "name": "_name",
          "type": "string"
        },
        {
          "internalType": "string",
          "name": "_description",
          "type": "string"
        },
        {
          "internalType": "string",
          "name": "_imageUrl",
          "type": "string"
        },
        {
          "internalType": "uint32[]",
          "name": "_dstChainIds",
          "type": "uint32[]"
        }
      ],
      "name": "quote",
      "outputs": [
        {
          "components": [
            {
              "internalType": "uint256",
              "name": "nativeFee",
              "type": "uint256"
            },
            {
              "internalType": "uint256",
              "name": "lzTokenFee",
              "type": "uint256"
            }
          ],
          "internalType": "struct MessagingFee",
          "name": "totalFee",
          "type": "tuple"
        }
      ],
      "stateMutability": "view",
      "type": "function"
    },
    {
      "inputs": [],
      "name": "renounceOwnership",
      "outputs": [],
      "stateMutability": "nonpayable",
      "type": "function"
    },
    {
      "inputs": [
        {
          "internalType": "address",
          "name": "_delegate",
          "type": "address"
        }
      ],
      "name": "setDelegate",
      "outputs": [],
      "stateMutability": "nonpayable",
      "type": "function"
    },
    {
      "inputs": [
        {
          "internalType": "uint32",
          "name": "_eid",
          "type": "uint32"
        },
        {
          "internalType": "bytes32",
          "name": "_peer",
          "type": "bytes32"
        }
      ],
      "name": "setPeer",
      "outputs": [],
      "stateMutability": "nonpayable",
      "type": "function"
    },
    {
      "inputs": [
        {
          "internalType": "uint256",
          "name": "",
          "type": "uint256"
        }
      ],
      "name": "stories",
      "outputs": [
        {
          "internalType": "uint256",
          "name": "id",
          "type": "uint256"
        },
        {
          "internalType": "address",
          "name": "author",
          "type": "address"
        },
        {
          "internalType": "string",
          "name": "name",
          "type": "string"
        },
        {
          "internalType": "string",
          "name": "description",
          "type": "string"
        },
        {
          "internalType": "string",
          "name": "imageUrl",
          "type": "string"
        }
      ],
      "stateMutability": "view",
      "type": "function"
    },
    {
      "inputs": [],
      "name": "totalStories",
      "outputs": [
        {
          "internalType": "uint256",
          "name": "",
          "type": "uint256"
        }
      ],
      "stateMutability": "view",
      "type": "function"
    },
    {
      "inputs": [
        {
          "internalType": "address",
          "name": "newOwner",
          "type": "address"
        }
      ],
      "name": "transferOwnership",
      "outputs": [],
      "stateMutability": "nonpayable",
      "type": "function"
    }
  ],
  "transactionHash": "0x391bc2ebe4dcf3e1f78a9b604769d2a34f69c9fd2c3a49b9a25ea95b43b84c40",
  "args": [
    "0x6EDCE65403992e310A62460808c4b910D972f10f",
    "0x0B95ec21579aee6Ef7b712976bD86689D68b5A08"
  ],
  "numDeployments": 9,
  "solcInputHash": "14e27be3948fb2564d427a855d9cbf65",
  "bytecode": "0x60016002908155600360f01b60c05260a090815260c2604052620000299062030d40600062000145565b6005906200003890826200044a565b503480156200004657600080fd5b506040516200287f3803806200287f833981016040819052620000699162000533565b81818181806001600160a01b0381166200009e57604051631e4fbdf760e01b8152600060048201526024015b60405180910390fd5b620000a981620001b7565b506001600160a01b038083166080528116620000d857604051632d618d8160e21b815260040160405180910390fd5b60805160405163ca5eb5e160e01b81526001600160a01b0383811660048301529091169063ca5eb5e190602401600060405180830381600087803b1580156200012057600080fd5b505af115801562000135573d6000803e3d6000fd5b505050505050505050506200065e565b60608360036200015782600062000207565b61ffff16146200018f576200016e81600062000207565b604051633a51740d60e01b815261ffff909116600482015260240162000095565b60006200019d858562000277565b9050620001ad86600183620002f2565b9695505050505050565b600080546001600160a01b038381166001600160a01b0319831681178455604051919092169283917f8be0079c531659141344cd1fd0a4f28419497f9722a3daafe3b4186f6b6457e09190a35050565b60006200021682600262000581565b83511015620002685760405162461bcd60e51b815260206004820152601460248201527f746f55696e7431365f6f75744f66426f756e6473000000000000000000000000604482015260640162000095565b50818101600201515b92915050565b60606001600160801b03821615620002c157604080516001600160801b0319608086811b8216602084015285901b16603082015201604051602081830303815290604052620002eb565b6040516001600160801b0319608085901b1660208201526030016040516020818303038152906040525b9392505050565b60608360036200030482600062000207565b61ffff16146200031b576200016e81600062000207565b8460016200033085516200036e60201b60201c565b6200033d90600162000597565b868660405160200162000355959493929190620005ee565b6040516020818303038152906040529150509392505050565b600061ffff8211156200039f576040516306dfcc6560e41b8152601060048201526024810183905260440162000095565b5090565b634e487b7160e01b600052604160045260246000fd5b600181811c90821680620003ce57607f821691505b602082108103620003ef57634e487b7160e01b600052602260045260246000fd5b50919050565b601f82111562000445576000816000526020600020601f850160051c81016020861015620004205750805b601f850160051c820191505b8181101562000441578281556001016200042c565b5050505b505050565b81516001600160401b03811115620004665762000466620003a3565b6200047e81620004778454620003b9565b84620003f5565b602080601f831160018114620004b657600084156200049d5750858301515b600019600386901b1c1916600185901b17855562000441565b600085815260208120601f198616915b82811015620004e757888601518255948401946001909101908401620004c6565b5085821015620005065787850151600019600388901b60f8161c191681555b5050505050600190811b01905550565b80516001600160a01b03811681146200052e57600080fd5b919050565b600080604083850312156200054757600080fd5b620005528362000516565b9150620005626020840162000516565b90509250929050565b634e487b7160e01b600052601160045260246000fd5b808201808211156200027157620002716200056b565b61ffff818116838216019080821115620005b557620005b56200056b565b5092915050565b6000815160005b81811015620005df5760208185018101518683015201620005c3565b50600093019283525090919050565b6000620005fc8288620005bc565b7fff0000000000000000000000000000000000000000000000000000000000000060f888811b821683526001600160f01b031960f089901b16600184015286901b166003820152620006526004820185620005bc565b98975050505050505050565b6080516121db620006a46000396000818161023f0152818161062101528181610f9f015281816111a50152818161137501528181611479015261153001526121db6000f3fe60806040526004361061011f5760003560e01c80637e56189f116100a0578063bb0b6a5311610064578063bb0b6a531461037d578063c5a580e4146103aa578063ca5eb5e1146103c0578063f2fde38b146103e0578063ff7bd03d1461040057600080fd5b80637e56189f146102c657806382413eac146102d95780638a3b6ab8146103185780638da5cb5b14610349578063b25a05941461036757600080fd5b80631aff2484116100e75780631aff2484146101d25780633400288b1461020d5780635e280f111461022d578063715018a6146102795780637d25a05e1461028e57600080fd5b806303cf950f1461012457806313137d651461015a57806315f07bd01461016f57806317442b701461018e578063191bbe2a146101b0575b600080fd5b34801561013057600080fd5b5061014461013f3660046117cb565b610420565b6040516101519190611898565b60405180910390f35b61016d610168366004611930565b61061f565b005b34801561017b57600080fd5b506004545b604051908152602001610151565b34801561019a57600080fd5b5060408051600181526002602082015201610151565b3480156101bc57600080fd5b506101c56106df565b60405161015191906119cf565b3480156101de57600080fd5b506101f26101ed366004611b24565b610988565b60408051825181526020928301519281019290925201610151565b34801561021957600080fd5b5061016d610228366004611c39565b610ae9565b34801561023957600080fd5b506102617f000000000000000000000000000000000000000000000000000000000000000081565b6040516001600160a01b039091168152602001610151565b34801561028557600080fd5b5061016d610aff565b34801561029a57600080fd5b506102ae6102a9366004611c39565b610b13565b6040516001600160401b039091168152602001610151565b61016d6102d4366004611b24565b610b1c565b3480156102e557600080fd5b506103086102f4366004611c63565b6001600160a01b0381163014949350505050565b6040519015158152602001610151565b34801561032457600080fd5b506103386103333660046117cb565b610da7565b604051610151959493929190611cc9565b34801561035557600080fd5b506000546001600160a01b0316610261565b34801561037357600080fd5b5061018060025481565b34801561038957600080fd5b50610180610398366004611d25565b60016020526000908152604090205481565b3480156103b657600080fd5b5061018060045481565b3480156103cc57600080fd5b5061016d6103db366004611d40565b610f78565b3480156103ec57600080fd5b5061016d6103fb366004611d40565b610ffe565b34801561040c57600080fd5b5061030861041b366004611d5d565b61103c565b61042861174c565b600082815260036020908152604091829020825160a0810184528154815260018201546001600160a01b031692810192909252600281018054929391929184019161047290611d79565b80601f016020809104026020016040519081016040528092919081815260200182805461049e90611d79565b80156104eb5780601f106104c0576101008083540402835291602001916104eb565b820191906000526020600020905b8154815290600101906020018083116104ce57829003601f168201915b5050505050815260200160038201805461050490611d79565b80601f016020809104026020016040519081016040528092919081815260200182805461053090611d79565b801561057d5780601f106105525761010080835404028352916020019161057d565b820191906000526020600020905b81548152906001019060200180831161056057829003601f168201915b5050505050815260200160048201805461059690611d79565b80601f01602080910402602001604051908101604052809291908181526020018280546105c290611d79565b801561060f5780601f106105e45761010080835404028352916020019161060f565b820191906000526020600020905b8154815290600101906020018083116105f257829003601f168201915b5050505050815250509050919050565b7f00000000000000000000000000000000000000000000000000000000000000006001600160a01b0316331461066f576040516391ac5e4f60e01b81523360048201526024015b60405180910390fd5b6020870180359061068990610684908a611d25565b611072565b146106c75761069b6020880188611d25565b60405163309afaf360e21b815263ffffffff909116600482015260208801356024820152604401610666565b6106d6878787878787876110ae565b50505050505050565b606060006004546001600160401b038111156106fd576106fd611a33565b60405190808252806020026020018201604052801561073657816020015b61072361174c565b81526020019060019003908161071b5790505b509050600060015b600254811015610980576000818152600360205260409020541561097857600081815260036020908152604091829020825160a0810184528154815260018201546001600160a01b03169281019290925260028101805492939192918401916107a690611d79565b80601f01602080910402602001604051908101604052809291908181526020018280546107d290611d79565b801561081f5780601f106107f45761010080835404028352916020019161081f565b820191906000526020600020905b81548152906001019060200180831161080257829003601f168201915b5050505050815260200160038201805461083890611d79565b80601f016020809104026020016040519081016040528092919081815260200182805461086490611d79565b80156108b15780601f10610886576101008083540402835291602001916108b1565b820191906000526020600020905b81548152906001019060200180831161089457829003601f168201915b505050505081526020016004820180546108ca90611d79565b80601f01602080910402602001604051908101604052809291908181526020018280546108f690611d79565b80156109435780601f1061091857610100808354040283529160200191610943565b820191906000526020600020905b81548152906001019060200180831161092657829003601f168201915b50505050508152505083838151811061095e5761095e611dad565b6020026020010181905250818061097490611dd9565b9250505b60010161073e565b509092915050565b60408051808201825260008082526020808301829052835160a08101855260025481523381830152808501899052606081018890526080810187905293519293926109d591849101611898565b604051602081830303815290604052905060005b8451811015610ade576000610aa4868381518110610a0957610a09611dad565b60200260200101518460058054610a1f90611d79565b80601f0160208091040260200160405190810160405280929190818152602001828054610a4b90611d79565b8015610a985780601f10610a6d57610100808354040283529160200191610a98565b820191906000526020600020905b815481529060010190602001808311610a7b57829003601f168201915b5050505050600061118f565b80518651919250908690610ab9908390611df2565b9052506020808201519086018051610ad2908390611df2565b905250506001016109e9565b505050949350505050565b610af1611270565b610afb828261129d565b5050565b610b07611270565b610b1160006112f2565b565b60005b92915050565b6000610b2a85858585610988565b8051909150341015610b7e5760405162461bcd60e51b815260206004820152601960248201527f496e73756666696369656e74206665652070726f7669646564000000000000006044820152606401610666565b6002805460009182610b8f83611dd9565b909155506040805160a0810182528281523360208083019182528284018b8152606084018b9052608084018a9052600086815260039092529390208251815590516001820180546001600160a01b0319166001600160a01b039092169190911790559151929350918291906002820190610c099082611e55565b5060608201516003820190610c1e9082611e55565b5060808201516004820190610c339082611e55565b50506004805491506000610c4683611dd9565b9190505550600081604051602001610c5e9190611898565b60408051601f198184030181529190529050600034815b8751811015610d9a576000610cab898381518110610c9557610c95611dad565b60200260200101518660058054610a1f90611d79565b8051909150610cba9085611df2565b8151909450610cc99084611f14565b9250610d90898381518110610ce057610ce0611dad565b60200260200101518660058054610cf690611d79565b80601f0160208091040260200160405190810160405280929190818152602001828054610d2290611d79565b8015610d6f5780601f10610d4457610100808354040283529160200191610d6f565b820191906000526020600020905b815481529060010190602001808311610d5257829003601f168201915b50505050506040518060400160405280348152602001600081525033611342565b5050600101610c75565b5050505050505050505050565b60036020526000908152604090208054600182015460028301805492936001600160a01b0390921692610dd990611d79565b80601f0160208091040260200160405190810160405280929190818152602001828054610e0590611d79565b8015610e525780601f10610e2757610100808354040283529160200191610e52565b820191906000526020600020905b815481529060010190602001808311610e3557829003601f168201915b505050505090806003018054610e6790611d79565b80601f0160208091040260200160405190810160405280929190818152602001828054610e9390611d79565b8015610ee05780601f10610eb557610100808354040283529160200191610ee0565b820191906000526020600020905b815481529060010190602001808311610ec357829003601f168201915b505050505090806004018054610ef590611d79565b80601f0160208091040260200160405190810160405280929190818152602001828054610f2190611d79565b8015610f6e5780601f10610f4357610100808354040283529160200191610f6e565b820191906000526020600020905b815481529060010190602001808311610f5157829003601f168201915b5050505050905085565b610f80611270565b60405163ca5eb5e160e01b81526001600160a01b0382811660048301527f0000000000000000000000000000000000000000000000000000000000000000169063ca5eb5e190602401600060405180830381600087803b158015610fe357600080fd5b505af1158015610ff7573d6000803e3d6000fd5b5050505050565b611006611270565b6001600160a01b03811661103057604051631e4fbdf760e01b815260006004820152602401610666565b611039816112f2565b50565b60006020820180359060019083906110549086611d25565b63ffffffff1681526020810191909152604001600020541492915050565b63ffffffff811660009081526001602052604081205480610b165760405163f6ff4fb760e01b815263ffffffff84166004820152602401610666565b60006110bc85870187611f27565b80516000908152600360205260408120549192500361118557805160009081526003602090815260409182902083518155908301516001820180546001600160a01b0319166001600160a01b039092169190911790559082015182919060028201906111289082611e55565b506060820151600382019061113d9082611e55565b50608082015160048201906111529082611e55565b5050600480549150600061116583611dd9565b9091555050600254815110611185578051611181906001611df2565b6002555b5050505050505050565b60408051808201909152600080825260208201527f00000000000000000000000000000000000000000000000000000000000000006001600160a01b031663ddc28c586040518060a001604052808863ffffffff1681526020016111f289611072565b8152602001878152602001868152602001851515815250306040518363ffffffff1660e01b8152600401611227929190611ff6565b6040805180830381865afa158015611243573d6000803e3d6000fd5b505050506040513d601f19601f8201168201806040525081019061126791906120bd565b95945050505050565b6000546001600160a01b03163314610b115760405163118cdaa760e01b8152336004820152602401610666565b63ffffffff8216600081815260016020908152604091829020849055815192835282018390527f238399d427b947898edb290f5ff0f9109849b1c3ba196a42e35f00c50a54b98b910160405180910390a15050565b600080546001600160a01b038381166001600160a01b0319831681178455604051919092169283917f8be0079c531659141344cd1fd0a4f28419497f9722a3daafe3b4186f6b6457e09190a35050565b61134a611784565b6000611359846000015161144d565b602085015190915015611373576113738460200151611475565b7f00000000000000000000000000000000000000000000000000000000000000006001600160a01b0316632637a450826040518060a001604052808b63ffffffff1681526020016113c38c611072565b81526020018a815260200189815260200160008960200151111515815250866040518463ffffffff1660e01b81526004016113ff929190611ff6565b60806040518083038185885af115801561141d573d6000803e3d6000fd5b50505050506040513d601f19601f8201168201806040525081019061144291906120d9565b979650505050505050565b6000813414611471576040516304fb820960e51b8152346004820152602401610666565b5090565b60007f00000000000000000000000000000000000000000000000000000000000000006001600160a01b031663e4fe1d946040518163ffffffff1660e01b8152600401602060405180830381865afa1580156114d5573d6000803e3d6000fd5b505050506040513d601f19601f820116820180604052508101906114f9919061214a565b90506001600160a01b038116611522576040516329b99a9560e11b815260040160405180910390fd5b6040805133602482018190527f00000000000000000000000000000000000000000000000000000000000000006001600160a01b03818116604485015260648085018890528551808603909101815260849094019094526020830180516001600160e01b03166323b872dd60e01b179052610afb9385169286906115a79085906115ad565b50505050565b60006115c26001600160a01b03841683611615565b905080516000141580156115e75750808060200190518101906115e59190612167565b155b1561161057604051635274afe760e01b81526001600160a01b0384166004820152602401610666565b505050565b60606116238383600061162a565b9392505050565b60608147101561164f5760405163cd78605960e01b8152306004820152602401610666565b600080856001600160a01b0316848660405161166b9190612189565b60006040518083038185875af1925050503d80600081146116a8576040519150601f19603f3d011682016040523d82523d6000602084013e6116ad565b606091505b50915091506116bd8683836116c7565b9695505050505050565b6060826116dc576116d782611723565b611623565b81511580156116f357506001600160a01b0384163b155b1561171c57604051639996b31560e01b81526001600160a01b0385166004820152602401610666565b5080611623565b8051156117335780518082602001fd5b604051630a12f52160e11b815260040160405180910390fd5b6040518060a001604052806000815260200160006001600160a01b031681526020016060815260200160608152602001606081525090565b60405180606001604052806000801916815260200160006001600160401b031681526020016117c6604051806040016040528060008152602001600081525090565b905290565b6000602082840312156117dd57600080fd5b5035919050565b60005b838110156117ff5781810151838201526020016117e7565b50506000910152565b600081518084526118208160208601602086016117e4565b601f01601f19169290920160200192915050565b8051825260018060a01b0360208201511660208301526000604082015160a0604085015261186560a0850182611808565b90506060830151848203606086015261187e8282611808565b915050608083015184820360808601526112678282611808565b6020815260006116236020830184611834565b6000606082840312156118bd57600080fd5b50919050565b60008083601f8401126118d557600080fd5b5081356001600160401b038111156118ec57600080fd5b60208301915083602082850101111561190457600080fd5b9250929050565b6001600160a01b038116811461103957600080fd5b803561192b8161190b565b919050565b600080600080600080600060e0888a03121561194b57600080fd5b61195589896118ab565b96506060880135955060808801356001600160401b038082111561197857600080fd5b6119848b838c016118c3565b909750955060a08a013591506119998261190b565b90935060c089013590808211156119af57600080fd5b506119bc8a828b016118c3565b989b979a50959850939692959293505050565b600060208083016020845280855180835260408601915060408160051b87010192506020870160005b82811015611a2657603f19888603018452611a14858351611834565b945092850192908501906001016119f8565b5092979650505050505050565b634e487b7160e01b600052604160045260246000fd5b60405160a081016001600160401b0381118282101715611a6b57611a6b611a33565b60405290565b604051601f8201601f191681016001600160401b0381118282101715611a9957611a99611a33565b604052919050565b600082601f830112611ab257600080fd5b81356001600160401b03811115611acb57611acb611a33565b611ade601f8201601f1916602001611a71565b818152846020838601011115611af357600080fd5b816020850160208301376000918101602001919091529392505050565b803563ffffffff8116811461192b57600080fd5b60008060008060808587031215611b3a57600080fd5b84356001600160401b0380821115611b5157600080fd5b611b5d88838901611aa1565b9550602091508187013581811115611b7457600080fd5b611b8089828a01611aa1565b955050604087013581811115611b9557600080fd5b611ba189828a01611aa1565b945050606087013581811115611bb657600080fd5b8701601f81018913611bc757600080fd5b803582811115611bd957611bd9611a33565b8060051b9250611bea848401611a71565b818152928201840192848101908b851115611c0457600080fd5b928501925b84841015611c2957611c1a84611b10565b82529285019290850190611c09565b989b979a50959850505050505050565b60008060408385031215611c4c57600080fd5b611c5583611b10565b946020939093013593505050565b60008060008060a08587031215611c7957600080fd5b611c8386866118ab565b935060608501356001600160401b03811115611c9e57600080fd5b611caa878288016118c3565b9094509250506080850135611cbe8161190b565b939692955090935050565b8581526001600160a01b038516602082015260a060408201819052600090611cf390830186611808565b8281036060840152611d058186611808565b90508281036080840152611d198185611808565b98975050505050505050565b600060208284031215611d3757600080fd5b61162382611b10565b600060208284031215611d5257600080fd5b81356116238161190b565b600060608284031215611d6f57600080fd5b61162383836118ab565b600181811c90821680611d8d57607f821691505b6020821081036118bd57634e487b7160e01b600052602260045260246000fd5b634e487b7160e01b600052603260045260246000fd5b634e487b7160e01b600052601160045260246000fd5b600060018201611deb57611deb611dc3565b5060010190565b80820180821115610b1657610b16611dc3565b601f821115611610576000816000526020600020601f850160051c81016020861015611e2e5750805b601f850160051c820191505b81811015611e4d57828155600101611e3a565b505050505050565b81516001600160401b03811115611e6e57611e6e611a33565b611e8281611e7c8454611d79565b84611e05565b602080601f831160018114611eb75760008415611e9f5750858301515b600019600386901b1c1916600185901b178555611e4d565b600085815260208120601f198616915b82811015611ee657888601518255948401946001909101908401611ec7565b5085821015611f045787850151600019600388901b60f8161c191681555b5050505050600190811b01905550565b81810381811115610b1657610b16611dc3565b600060208284031215611f3957600080fd5b81356001600160401b0380821115611f5057600080fd5b9083019060a08286031215611f6457600080fd5b611f6c611a49565b82358152611f7c60208401611920565b6020820152604083013582811115611f9357600080fd5b611f9f87828601611aa1565b604083015250606083013582811115611fb757600080fd5b611fc387828601611aa1565b606083015250608083013582811115611fdb57600080fd5b611fe787828601611aa1565b60808301525095945050505050565b6040815263ffffffff8351166040820152602083015160608201526000604084015160a0608084015261202c60e0840182611808565b90506060850151603f198483030160a08501526120498282611808565b60809690960151151560c08501525050506001600160a01b039190911660209091015290565b60006040828403121561208157600080fd5b604051604081018181106001600160401b03821117156120a3576120a3611a33565b604052825181526020928301519281019290925250919050565b6000604082840312156120cf57600080fd5b611623838361206f565b6000608082840312156120eb57600080fd5b604051606081016001600160401b03828210818311171561210e5761210e611a33565b816040528451835260208501519150808216821461212b57600080fd5b50602082015261213e846040850161206f565b60408201529392505050565b60006020828403121561215c57600080fd5b81516116238161190b565b60006020828403121561217957600080fd5b8151801515811461162357600080fd5b6000825161219b8184602087016117e4565b919091019291505056fea26469706673582212206b23330aabc7357dad9e3a21fed65210d32f216687db0ff1e258df61a03e851664736f6c63430008160033",
  "devdoc": {
    "errors": {
      "AddressEmptyCode(address)": [
        {
          "details": "There's no code at `target` (it is not a contract)."
        }
      ],
      "AddressInsufficientBalance(address)": [
        {
          "details": "The ETH balance of the account is not enough to perform the operation."
        }
      ],
      "FailedInnerCall()": [
        {
          "details": "A call to an address target failed. The target may have reverted."
        }
      ],
      "OwnableInvalidOwner(address)": [
        {
          "details": "The owner is not a valid owner account. (eg. `address(0)`)"
        }
      ],
      "OwnableUnauthorizedAccount(address)": [
        {
          "details": "The caller account is not authorized to perform an operation."
        }
      ],
      "SafeCastOverflowedUintDowncast(uint8,uint256)": [
        {
          "details": "Value doesn't fit in an uint of `bits` size."
        }
      ],
      "SafeERC20FailedOperation(address)": [
        {
          "details": "An operation with an ERC20 token failed."
        }
      ]
    },
    "kind": "dev",
    "methods": {
      "allowInitializePath((uint32,bytes32,uint64))": {
        "details": "This indicates to the endpoint that the OApp has enabled msgs for this particular path to be received.This defaults to assuming if a peer has been set, its initialized. Can be overridden by the OApp if there is other logic to determine this.",
        "params": {
          "origin": "The origin information containing the source endpoint and sender address."
        },
        "returns": {
          "_0": "Whether the path has been initialized."
        }
      },
      "isComposeMsgSender((uint32,bytes32,uint64),bytes,address)": {
        "details": "_origin The origin information containing the source endpoint and sender address.  - srcEid: The source chain endpoint ID.  - sender: The sender address on the src chain.  - nonce: The nonce of the message._message The lzReceive payload.Applications can optionally choose to implement separate composeMsg senders that are NOT the bridging layer.The default sender IS the OAppReceiver implementer.",
        "params": {
          "_sender": "The sender address."
        },
        "returns": {
          "_0": "isSender Is a valid sender."
        }
      },
      "lzReceive((uint32,bytes32,uint64),bytes32,bytes,address,bytes)": {
        "details": "Entry point for receiving messages or packets from the endpoint.Entry point for receiving msg/packet from the LayerZero endpoint.",
        "params": {
          "_executor": "The address of the executor for the received message.",
          "_extraData": "Additional arbitrary data provided by the corresponding executor.",
          "_guid": "The unique identifier for the received LayerZero message.",
          "_message": "The payload of the received message.",
          "_origin": "The origin information containing the source endpoint and sender address.  - srcEid: The source chain endpoint ID.  - sender: The sender address on the src chain.  - nonce: The nonce of the message."
        }
      },
      "nextNonce(uint32,bytes32)": {
        "details": "_srcEid The source endpoint ID._sender The sender address.The path nonce starts from 1. If 0 is returned it means that there is NO nonce ordered enforcement.Is required by the off-chain executor to determine the OApp expects msg execution is ordered.This is also enforced by the OApp.By default this is NOT enabled. ie. nextNonce is hardcoded to return 0.",
        "returns": {
          "nonce": "The next nonce."
        }
      },
      "oAppVersion()": {
        "returns": {
          "receiverVersion": "The version of the OAppReceiver.sol implementation.",
          "senderVersion": "The version of the OAppSender.sol implementation."
        }
      },
      "owner()": {
        "details": "Returns the address of the current owner."
      },
      "renounceOwnership()": {
        "details": "Leaves the contract without owner. It will not be possible to call `onlyOwner` functions. Can only be called by the current owner. NOTE: Renouncing ownership will leave the contract without an owner, thereby disabling any functionality that is only available to the owner."
      },
      "setDelegate(address)": {
        "details": "Only the owner/admin of the OApp can call this function.Provides the ability for a delegate to set configs, on behalf of the OApp, directly on the Endpoint contract.",
        "params": {
          "_delegate": "The address of the delegate to be set."
        }
      },
      "setPeer(uint32,bytes32)": {
        "details": "Only the owner/admin of the OApp can call this function.Indicates that the peer is trusted to send LayerZero messages to this OApp.Set this to bytes32(0) to remove the peer address.Peer is a bytes32 to accommodate non-evm chains.",
        "params": {
          "_eid": "The endpoint ID.",
          "_peer": "The address of the peer to be associated with the corresponding endpoint."
        }
      },
      "transferOwnership(address)": {
        "details": "Transfers ownership of the contract to a new account (`newOwner`). Can only be called by the current owner."
      }
    },
    "version": 1
  },
  "userdoc": {
    "kind": "user",
    "methods": {
      "allowInitializePath((uint32,bytes32,uint64))": {
        "notice": "Checks if the path initialization is allowed based on the provided origin."
      },
      "endpoint()": {
        "notice": "Retrieves the LayerZero endpoint associated with the OApp."
      },
      "isComposeMsgSender((uint32,bytes32,uint64),bytes,address)": {
        "notice": "Indicates whether an address is an approved composeMsg sender to the Endpoint."
      },
      "nextNonce(uint32,bytes32)": {
        "notice": "Retrieves the next nonce for a given source endpoint and sender address."
      },
      "oAppVersion()": {
        "notice": "Retrieves the OApp version information."
      },
      "peers(uint32)": {
        "notice": "Retrieves the peer (OApp) associated with a corresponding endpoint."
      },
      "setDelegate(address)": {
        "notice": "Sets the delegate address for the OApp."
      },
      "setPeer(uint32,bytes32)": {
        "notice": "Sets the peer address (OApp instance) for a corresponding endpoint."
      }
    },
    "version": 1
  },
  "storageLayout": {
    "storage": [
      {
        "astId": 2742,
        "contract": "contracts/MyOApp.sol:MyOApp",
        "label": "_owner",
        "offset": 0,
        "slot": "0",
        "type": "t_address"
      },
      {
        "astId": 1825,
        "contract": "contracts/MyOApp.sol:MyOApp",
        "label": "peers",
        "offset": 0,
        "slot": "1",
        "type": "t_mapping(t_uint32,t_bytes32)"
      },
      {
        "astId": 5351,
        "contract": "contracts/MyOApp.sol:MyOApp",
        "label": "nextStoryId",
        "offset": 0,
        "slot": "2",
        "type": "t_uint256"
      },
      {
        "astId": 5356,
        "contract": "contracts/MyOApp.sol:MyOApp",
        "label": "stories",
        "offset": 0,
        "slot": "3",
        "type": "t_mapping(t_uint256,t_struct(Story)5348_storage)"
      },
      {
        "astId": 5358,
        "contract": "contracts/MyOApp.sol:MyOApp",
        "label": "totalStories",
        "offset": 0,
        "slot": "4",
        "type": "t_uint256"
      },
      {
        "astId": 5370,
        "contract": "contracts/MyOApp.sol:MyOApp",
        "label": "options",
        "offset": 0,
        "slot": "5",
        "type": "t_bytes_storage"
      }
    ],
    "types": {
      "t_address": {
        "encoding": "inplace",
        "label": "address",
        "numberOfBytes": "20"
      },
      "t_bytes32": {
        "encoding": "inplace",
        "label": "bytes32",
        "numberOfBytes": "32"
      },
      "t_bytes_storage": {
        "encoding": "bytes",
        "label": "bytes",
        "numberOfBytes": "32"
      },
      "t_mapping(t_uint256,t_struct(Story)5348_storage)": {
        "encoding": "mapping",
        "key": "t_uint256",
        "label": "mapping(uint256 => struct MyOApp.Story)",
        "numberOfBytes": "32",
        "value": "t_struct(Story)5348_storage"
      },
      "t_mapping(t_uint32,t_bytes32)": {
        "encoding": "mapping",
        "key": "t_uint32",
        "label": "mapping(uint32 => bytes32)",
        "numberOfBytes": "32",
        "value": "t_bytes32"
      },
      "t_string_storage": {
        "encoding": "bytes",
        "label": "string",
        "numberOfBytes": "32"
      },
      "t_struct(Story)5348_storage": {
        "encoding": "inplace",
        "label": "struct MyOApp.Story",
        "members": [
          {
            "astId": 5339,
            "contract": "contracts/MyOApp.sol:MyOApp",
            "label": "id",
            "offset": 0,
            "slot": "0",
            "type": "t_uint256"
          },
          {
            "astId": 5341,
            "contract": "contracts/MyOApp.sol:MyOApp",
            "label": "author",
            "offset": 0,
            "slot": "1",
            "type": "t_address"
          },
          {
            "astId": 5343,
            "contract": "contracts/MyOApp.sol:MyOApp",
            "label": "name",
            "offset": 0,
            "slot": "2",
            "type": "t_string_storage"
          },
          {
            "astId": 5345,
            "contract": "contracts/MyOApp.sol:MyOApp",
            "label": "description",
            "offset": 0,
            "slot": "3",
            "type": "t_string_storage"
          },
          {
            "astId": 5347,
            "contract": "contracts/MyOApp.sol:MyOApp",
            "label": "imageUrl",
            "offset": 0,
            "slot": "4",
            "type": "t_string_storage"
          }
        ],
        "numberOfBytes": "160"
      },
      "t_uint256": {
        "encoding": "inplace",
        "label": "uint256",
        "numberOfBytes": "32"
      },
      "t_uint32": {
        "encoding": "inplace",
        "label": "uint32",
        "numberOfBytes": "4"
      }
    }
  }
}